:020000040000FA
:060000000A128A1110280B
:10000800FE00030EF1000A08F200831203137F08B2
:10001800F3000A128A115D2C0A128A111328F601BC
:10002800F701F801F90183120313B301B401B50113
:10003800B60183010A128A11AE2C2128FF00003074
:100048008A007F08820727280A128A11C52C831282
:100058000313B100831603139201831203170D11C2
:100068008D10071783120313AF01AF0A1230150260
:1000780003183F28402881282F08A600A701260832
:10008800A0002708A1001508A800A901A809A90926
:10009800A80A0319A90A2808123EA2002908031869
:1000A800013E003EA3000A128A1143230A128A1154
:1000B800831203132008AA002A08AB002B08A60005
:1000C8002608950777282F08A600260895070830E0
:1000D80083120313A7003230A600A60B7128A70BC2
:1000E8007128762877281230831203131506031D0A
:1000F8007E287F2867288128812813301502031C51
:1001080086288728BB282F08A600A7012608A00054
:100118002708A1001508EE3EA200FF3003180030A2
:10012800A3000A128A1143230A128A1183120313A5
:100138002008A8002808AC002C089502B1282F0830
:100148009502083083120313A7003230A600A60BCD
:10015800AB28A70BAB28B028B128123083120313A1
:100168001506031DB828B928A328BB28BB287D304D
:1001780083160313900083120313B001B00A3108E9
:100188008316031312020318CA28CB2818298312CE
:1001980003133008A600A7012608A0002708A1001D
:1001A80083160313120883120313A800A901A809D0
:1001B800A909A80A0319A90A31082807A2002908C9
:1001C8000318290AA3000A128A1143230A128A1162
:1001D800831203132008AA002A08AD002D08A600E0
:1001E80026088316031392070C2983123008A600E9
:1001F8002608831603139207EC3083120313A60014
:1002080005290629A60B042909290A290B290C29DD
:10021800831603131208831203133106031D1529CD
:100228001629F92818291829831603131208831286
:100238000313310203182129222969293008A6004D
:10024800A7012608A0002708A1003108A800A901D5
:10025800A809A909A80A0319A90A831603131208E9
:10026800831203132807A20029080318290AA300E8
:100278000A128A1143230A128A11831203132008CF
:10028800AA002A08AE002E088316031392025D29DD
:1002980083123008831603139202EC30831203137F
:1002A800A60056295729A60B55295A295B295C29E6
:1002B8005D29831603131208831203133106031DE5
:1002C800662967294C2969296929080083120313BB
:1002D800B100831603139101831203170C118C10BC
:1002E800871783120313AF01AF0A143017020318DC
:1002F8007E297F29C0292F08A600A7012608A0006B
:100308002708A1001708A800A901A809A909A80A8F
:100318000319A90A2808143EA20029080318013E57
:10032800003EA3000A128A1143230A128A1183127B
:1003380003132008AA002A08AB002B08A6002608E9
:100348009707B6292F08A6002608970707308312B3
:100358000313A7007A30A600A60BB029A70BB02973
:10036800B529B6291430831203131706031DBD29B6
:10037800BE29A629C029C02915301702031CC52982
:10038800C629FA292F08A600A7012608A0002708D1
:10039800A1001708EC3EA200FF3003180030A300AC
:1003A8000A128A1143230A128A118312031320089E
:1003B800A8002808AC002C089702F0292F089702FB
:1003C800073083120313A7007A30A600A60BEA2988
:1003D800A70BEA29EF29F029143083120313170613
:1003E800031DF729F829E229FA29FA293230831658
:1003F80003138F0083120313B001B00A3108831668
:10040800031311020318092A0A2A532A8312031311
:100418003008A600A7012608A0002708A100831617
:100428000313110883120313A800A901A809A90935
:10043800A80A0319A90A31082807A20029080318DD
:10044800290AA3000A128A1143230A128A11831265
:1004580003132008AA002A08AD002D08A6002608C4
:10046800831603139107472A83123008A60026082B
:10047800831603139107A43083120313A600A60B57
:10048800432A462A472A83160313110883120313A3
:100498003106031D502A512A382A532A532A831613
:1004A8000313110883120313310203185C2A5D2A0F
:1004B800A02A3008A600A7012608A0002708A10046
:1004C8003108A800A901A809A909A80A0319A90AB5
:1004D800831603131108831203132807A20029089F
:1004E8000318290AA3000A128A1143230A128A113F
:1004F800831203132008AA002A08AE002E088316C8
:1005080003139102942A831230088316031391026D
:10051800A43083120313A600A60B902A932A942AC8
:10052800831603131108831203133106031D9D2A32
:100538009E2A872AA02AA02A0800831603171017C4
:1005480020309300803092001014000000008316C1
:1005580003171508980014089600813092001014AB
:100568000000000083160317150899001408970067
:10057800823092001014000000008316031715083B
:100588009D0014089B0083309200101400000000A6
:100598008316031715089C001408F4000430031090
:1005A800F40CFF3E031DD32A74080F399A0014086F
:1005B8000F39831603139B008430831603179200A8
:1005C800101400000000831603171508F70014081C
:1005D800F6008530920010140000000083160317FF
:1005E80014089E0086309200101400000000831644
:1005F80003171408960088309200101400000000B9
:10060800831603171408990089309200101400000B
:10061800000083160317140898008A3092001014FB
:10062800000000008316031714089A008B3092000C
:10063800101400000000FF30831603171405F4009F
:1006480003301505F500740883120313B500750807
:10065800B6008C30831603179200101400000000B7
:10066800FF30831603171405F40003301505F50051
:10067800740883120313B3007508B40008008312CA
:100688000313A501A31F492B4A2B522BA209A30927
:10069800A20A0319A30AA501A50A522BA11F552BCB
:1006A800562B5C2BA009A109A00A0319A10A5C2BEF
:1006B800200821040319612B622B972BA401A40A9B
:1006C800712B01300310A00DA10DFF3E031D662BF9
:1006D8000130F4007408A407712BA11F742B752B2B
:1006E800652B772B772B21082302031D7D2B2008F0
:1006F8002202031C802B812B882B2008A2022108B0
:10070800031CA303A302882B01300310A10CA00C27
:10071800FF3E031D892B0130A402031D942B952B4A
:10072800772B972B972B250803199B2B9C2BA22BF8
:10073800A209A309A20A0319A30AA22B2308A1004C
:100748002208A000A72B0800831603131E08F039FF
:1007580004389E001F08FC3901389F009A01900157
:100768008312031707130D158D14831603139201B3
:1007780083120313950193010E30831603139D0012
:100788003C30F500750883120313B20032080A12D0
:100798008A112B200A128A110800831603131E08D7
:1007A8000F3940389E001F08F33904389F0099011B
:1007B8008F018312031787130C158C1483160313E8
:1007C80091018312031397010E30831603139C00C3
:1007D800C730F500750883120313B20032080A12F5
:1007E8008A116A210A128A1108000A128A118E24B3
:1007F8000A128A110A128A11A2240A128A110A12EA
:100808008A11B7240A128A110A128A1141240A127B
:100818008A110A128A1177240A128A110A128A1175
:10082800A8230A128A110A128A11D1230A128A11DC
:1008380008000B1179088312031381007808031943
:10084800262C272C2E2C78080A128A1122200A120C
:100858008A112E2C83120313050EF000F00C700C75
:100868000139F0000130F006F00EF00DF00D05082A
:100878007006BF3970068500080088308316031398
:100888008E0021308C0019308D00552C0810033053
:10089800F5009730F400F40B4F2CF50B4F2C542C2B
:1008A800552C8312031308185A2C5B2C4A2C5C2CE9
:1008B80008008B1E602C612C6C2C0B1D642C652C85
:1008C8006C2C0A128A111D240A128A116C2C6C2CA9
:1008D800730883120313FF0072088A00710E8300E5
:1008E800FE0E7E0E0900831603130108C03918385E
:1008F800810038308312031381003830A0002008AB
:10090800F9000B118B1601300A128A11BF240A1242
:100918008A1108008312031386018501AF308316FC
:100928000313850073308600EF30831203178500A8
:10093800F330860083160313811308000A128A1104
:10094800A1220A128A118312031787018C018B17BF
:100958000B1708000A128A11F9230A128A11B32CFC
:100968000A128A111028831203139001163091007D
:100978008F0110150800F5007508F4007408F800D8
:04098800080008005B
:02400E00F7FFBA
:00000001FF
