:020000040000FA
:060000000A128A1110280B
:10000800FE00030EF1000A08F200831203137F08B2
:10001800F3000A128A11D92C0A128A111328F60140
:10002800F701F801F90183133330840043300A12D1
:100038008A1133250A128A1183010A128A11AB2BFD
:100048002428FF0000308A007F0882072A280A1225
:100058008A11492D83120313B100831603139201E9
:10006800831203170D118D10071783120313AF01A5
:10007800AF0A1230150203184228432884282F0893
:10008800A600A7012608A0002708A1001508A800B7
:10009800A901A809A909A80A0319A90A2808123E4A
:1000A800A20029080318013E003EA3000A128A1183
:1000B80046230A128A11831203132008AA002A0869
:1000C800AB002B08A600260895077A282F08A6005B
:1000D80026089507083083120313A7003230A600BC
:1000E800A60B7428A70B742879287A281230831253
:1000F80003131506031D812882286A28842884286A
:1001080013301502031C89288A28BE282F08A60048
:10011800A7012608A0002708A1001508EE3EA200A6
:10012800FF3003180030A3000A128A1146230A126E
:100138008A11831203132008A8002808AC002C0891
:100148009502B4282F089502083083120313A700DC
:100158003230A600A60BAE28A70BAE28B328B428C9
:100168001230831203131506031DBB28BC28A628CA
:10017800BE28BE287D308316031390008312031314
:10018800B001B00A31088316031312020318CD28F0
:10019800CE281B29831203133008A600A7012608BE
:1001A800A0002708A1008316031312088312031363
:1001B800A800A901A809A909A80A0319A90A3108C8
:1001C8002807A20029080318290AA3000A128A117D
:1001D80046230A128A11831203132008AA002A0848
:1001E800AD002D08A60026088316031392070F29D1
:1001F80083123008A6002608831603139207EC30F2
:1002080083120313A60008290929A60B07290C291C
:100218000D290E290F2983160313120883120313BD
:100228003106031D18291929FC281B291B298316A7
:1002380003131208831203133102031824292529F2
:100248006C293008A600A7012608A0002708A100ED
:100258003108A800A901A809A909A80A0319A90A27
:10026800831603131208831203132807A200290810
:100278000318290AA3000A128A1146230A128A11AE
:10028800831203132008AA002A08AE002E0883163A
:100298000313920260298312300883160313920213
:1002A800EC3083120313A60059295A29A60B5829A2
:1002B8005D295E295F2960298316031312088312BA
:1002C80003133106031D69296A294F296C296C29F2
:1002D800080083120313B1008316031391018312DC
:1002E80003170C118C10871783120313AF01AF0A81
:1002F80014301702031881298229C3292F08A60060
:10030800A7012608A0002708A1001708A800A9012E
:10031800A809A909A80A0319A90A2808143EA200CD
:1003280029080318013E003EA3000A128A11462339
:100338000A128A11831203132008AA002A08AB00A4
:100348002B08A60026089707B9292F08A600260813
:100358009707073083120313A7007A30A600A60B6D
:10036800B329A70BB329B829B92914308312031369
:100378001706031DC029C129A929C329C329153076
:100388001702031CC829C929FD292F08A600A7019F
:100398002608A0002708A1001708EC3EA200FF309D
:1003A80003180030A3000A128A1146230A128A1180
:1003B800831203132008A8002808AC002C08970211
:1003C800F3292F089702073083120313A7007A3006
:1003D800A600A60BED29A70BED29F229F329143065
:1003E800831203131706031DFA29FB29E529FD29A2
:1003F800FD293230831603138F0083120313B001D3
:10040800B00A310883160313110203180C2A0D2AA7
:10041800562A831203133008A600A7012608A00055
:100428002708A10083160313110883120313A800D9
:10043800A901A809A909A80A0319A90A31082807BE
:10044800A20029080318290AA3000A128A114623C0
:100458000A128A11831203132008AA002A08AD0081
:100468002D08A60026088316031391074A2A83122B
:100478003008A6002608831603139107A4308312B8
:100488000313A600A60B462A492A4A2A83160313F1
:100498001108831203133106031D532A542A3B2AD9
:1004A800562A562A8316031311088312031331029E
:1004B80003185F2A602AA32A3008A600A701260885
:1004C800A0002708A1003108A800A901A809A909C6
:1004D800A80A0319A90A8316031311088312031320
:1004E8002807A20029080318290AA3000A128A115A
:1004F80046230A128A11831203132008AA002A0825
:10050800AE002E08831603139102972A831230082F
:10051800831603139102A43083120313A600A60BBB
:10052800932A962A972A8316031311088312031312
:100538003106031DA02AA12A8A2AA32AA32A080071
:100548008316031710172030930080309200101480
:100558000000000083160317150898001408960079
:10056800813092001014000000008316031715084C
:1005780099001408970082309200101400000000BF
:100588008316031715089D0014089B0083309200FA
:100598001014000000008316031715089C001408A7
:1005A800F40004300310F40CFF3E031DD62A74082F
:1005B8000F399A0014080F39831603139B008430EF
:1005C8008316031792001014000000008316031707
:1005D8001508F7001408F600853092001014000082
:1005E80000008316031714089E008630920010142A
:1005F8000000000083160317140896008830920044
:10060800101400000000831603171408990089309D
:1006180092001014000000008316031714089800B5
:100628008A30920010140000000083160317140883
:100638009A008B309200101400000000FF308316DF
:1006480003171405F40003301505F5007408831228
:100658000313C1007508C2008C308316031792007B
:10066800101400000000FF30831603171405F4006F
:1006780003301505F500740883120313BF007508CD
:10068800C000080083120313A501A31F4C2B4D2B98
:10069800552BA209A309A20A0319A30AA501A50AB1
:1006A800552BA11F582B592B5F2BA009A109A00A74
:1006B8000319A10A5F2B200821040319642B652B59
:1006C8009A2BA401A40A742B01300310A00DA10DCC
:1006D800FF3E031D692B0130F4007408A407742B36
:1006E800A11F772B782B682B7A2B7A2B21082302D2
:1006F800031D802B20082202031C832B842B8B2BA9
:100708002008A2022108031CA303A3028B2B01309B
:100718000310A10CA00CFF3E031D8C2B0130A4027A
:10072800031D972B982B7A2B9A2B9A2B25080319A4
:100738009E2B9F2BA52BA209A309A20A0319A30A82
:10074800A52B2308A1002208A000AA2B08000A1242
:100758008A11FD230A128A111F300A128A119B245A
:100768000A128A11750883120313BE007408BD00AB
:1007780011300A128A119B240A128A1175088312F1
:100788000313BC007408BB0000300A128A119B24B2
:100798000A128A11750883120313BA007408B90083
:1007A80001300A128A119B240A128A1175088312D1
:1007B8000313B8007408B70003300A128A119B2487
:1007C8000A128A11750883120313B6007408B5005B
:1007D8003C300A128A119B240A128A117508831266
:1007E8000313B4007408B300B02BB02B0A128A119B
:1007F80010280A128A110A250A128A110A128A1165
:100808001E250A128A110A128A113B250A128A1118
:100818000A128A11BD240A128A110A128A112A257B
:100828000A128A110A128A11F3240A128A110A1268
:100838008A1126240A128A110A128A114F240A12CE
:100848008A110800831603131E08F03904389E0025
:100858001F08FC3901389F009A0190018312031781
:1008680007130D158D1483160313920183120313B6
:10087800950193010E30831603139D003C30F5005B
:10088800750883120313B20032080A128A112E2047
:100898000A128A110800831603131E080F394038FC
:1008A8009E001F08F33904389F0099018F018312B5
:1008B800031787130C158C148316031391018312E5
:1008C800031397010E30831603139C00C730F500FD
:1008D800750883120313B20032080A128A116D21B7
:1008E8000A128A1108000B11790883120313810078
:1008F80078080319802C812C882C78080A128A1110
:1009080025200A128A11882C83120313050EF00081
:10091800F00C700C0139F0000130F006F00EF00D0B
:10092800F00D05087006BF397006850008008312AF
:100938000313A1002108A000A00DA00D1E08200689
:10094800033920069E001E14073083120313A000EB
:10095800A00BAC2C831203139E14B22C9E18B52C3A
:10096800B62CB22CB72C1D08F5001C08F400BC2CC2
:1009780008008830831603138E0021308C0019304C
:100988008D00D12C08100330F5009730F400F40BDB
:10099800CB2CF50BCB2CD02CD12C8312031308189D
:1009A800D62CD72CC62CD82C08008B1EDC2CDD2C82
:1009B800E82C0B1DE02CE12CE82C0A128A11772474
:1009C8000A128A11E82CE82C730883120313FF001B
:1009D80072088A00710E8300FE0E7E0E09008316CF
:1009E80003130108C0391838810038308312031303
:1009F80081003830A0002008F9000B118B16013057
:100A08000A128A1143250A128A1108008312031355
:100A180086018501AF308316031385007330860085
:100A2800EF30831203178500F33086008316031313
:100A3800811308000A128A11A4220A128A11831249
:100A4800031787018C018B170B170800E1308312FD
:100A580003139E0010309F009C019D010800640054
:100A68008001840A0406031900340406342D831215
:100A780003139001163091008F0110150800F5003E
:0C0A88007508F4007408F800080008006D
:02400E00F7FFBA
:00000001FF
