:020000040000FA
:060000000A128A11F42F20
:1007B400831203139001163091008F011015080065
:1007C4000A128A1125240A128A11E72B0A128A11A5
:1007D40000280A128A11F4240A128A1183120317B8
:1007E40087018C0108008312031386018501EF3011
:1007F400831603138500F3308600EF30831203174A
:100804008500F330860083160313811308008830B3
:10081400831603138E0021308C0019308D001D2C9B
:1008240008100330F1009730F000F00B172CF10B97
:10083400172C1C2C1D2C831203130818222C232C78
:10084400122C242C08000A128A11F5230A128A1188
:100854000A128A11EB230A128A110A128A11DA2364
:100864000A128A110A128A1109240A128A110A1216
:100874008A116A240A128A110A128A1144240A1259
:100884008A110800831603131E080F3940389E008E
:100894001F08F33904389F0099018F01831203174D
:1008A40087130C158C1483160313910183120313FD
:1008B40097010E30831603139C00C730FC007C089C
:1008C400FD007D080A128A119E250A128A11080069
:1008D400831603131E08F03904389E001F08FC39E0
:1008E40001389F009A0190018312031707130D1515
:1008F4008D1483160313920183120313950193013C
:100904000E30831603139D003C30FC007C08FD0070
:100914007D080A128A11C7260A128A110800F601F4
:10092400F31F952C962C9E2CF209F309F20A031955
:10093400F30AF601F60A9E2CF11FA12CA22CA82C76
:10094400F009F109F00A0319F10AA82C70087104DE
:100954000319AD2CAE2CE32CF501F50ABD2C0130A6
:100964000310F00DF10DFF3E031DB22C0130F40015
:100974007408F507BD2CF11FC02CC12CB12CC32C5D
:10098400C32C71087302031DC92C70087202031C66
:10099400CC2CCD2CD42C7008F2027108031CF30368
:1009A400F302D42C01300310F10CF00CFF3E031DB4
:1009B400D52C0130F502031DE02CE12CC32CE32CD3
:1009C400E32C76080319E72CE82CEE2CF209F30942
:1009D400F20A0319F30AEE2C7308F1007208F0000E
:1009E400F32C08008316031710172030930080306F
:1009F40092001014000000008316031715089800D5
:100A04001408960081309200101400000000831630
:100A140003171508990014089700823092001014E7
:100A2400000000008316031715089D0014089B009E
:100A34008330920010140000000083160317150879
:100A44009C001408F00004300310F00CFF3E031D5A
:100A5400262D70080F399A0014080F3983160313D2
:100A64009B008430831603179200101400000000CA
:100A740083160317150883120313AC008316031798
:100A8400140883120313AB008530831603179200F6
:100A94001014000000008316031714089E0086300B
:100AA4009200101400000000831603171408960027
:100AB40088309200101400000000831603171408F5
:100AC4009900893092001014000000008316031767
:100AD400140898008A309200101400000000831655
:100AE400031714089A008B309200101400000000C1
:100AF400FF30831603171405F00003301505F100C9
:100B0400700883120313A9007108AA008C3083169D
:100B140003179200101400000000FF30831603171F
:100B24001405F00003301505F10070088312031357
:100B3400A7007108A800080083120313A6008316F7
:100B440003139101831203170C118C10871783125E
:100B54000313A401A40A143017020318B22DB32DF1
:100B6400F12D2408F700F8017708F0007808F10067
:100B74001708F900FA01F909FA09F90A0319FA0A36
:100B84007908143EF2007A080318013E003EF3008F
:100B94000A128A1191240A128A117008FB007B0838
:100BA40083120313A0002008F70077089707E72DA6
:100BB4002408F700770897070730F8007B30F70020
:100BC400F70BE22DF80BE22DE72D143083120313FB
:100BD4001706031DEE2DEF2DDA2DF12DF12D153015
:100BE4001702031CF62DF72D282E2408F700F80110
:100BF4007708F0007808F1001708EC3EF200FF30A7
:100C040003180030F3000A128A1191240A128A117F
:100C14007008F900790883120313A10021089702D0
:100C24001E2E240897020730F8007B30F700F70BDC
:100C3400192EF80B192E1E2E1430831203131706C7
:100C4400031D252E262E132E282E282E32308316F1
:100C540003138F0083120313A501A50A2608831624
:100C6400031311020318372E382E7E2E831203131A
:100C74002508F700F8017708F0007808F1008316DA
:100C840003131108F900FA01F909FA09F90A031919
:100C9400FA0A8312031326087907F2007A08031864
:100CA4007A0AF3000A128A1191240A128A1170082E
:100CB400FB007B0883120313A2002208F7007708C5
:100CC400831603139107722E83122508F700770801
:100CD400831603139107A530F700F70B6F2E722EBE
:100CE400831603131108831203132606031D7B2E98
:100CF4007C2E662E7E2E7E2E8316031311088312FD
:100D0400031326020318872E882EC62E2508F70003
:100D1400F8017708F0007808F1002608F900FA01D4
:100D2400F909FA09F90A0319FA0A831603131108CF
:100D34007907F2007A0803187A0AF3000A128A1172
:100D440091240A128A117008FB007B088312031392
:100D5400A3002308831603139102BA2E83122508D5
:100D6400831603139102A530F700F70BB72EBA2EA2
:100D7400831603131108831203132606031DC32EBF
:100D8400C42EB02EC62EC62E080083120313A6004E
:100D9400831603139201831203170D118D10071785
:100DA40083120313A401A40A123015020318DB2EC4
:100DB400DC2E1A2F2408F700F8017708F0007808D1
:100DC400F1001508F900FA01F909FA09F90A0319F9
:100DD400FA0A7908123EF2007A080318013E003E2E
:100DE400F3000A128A1191240A128A117008FB0076
:100DF4007B0883120313A0002008F70077089507E7
:100E0400102F2408F700770895070830F8003330CE
:100E1400F700F70B0B2FF80B0B2F102F1230831248
:100E240003131506031D172F182F032F1A2F1A2F1C
:100E340013301502031C1F2F202F512F2408F700F5
:100E4400F8017708F0007808F1001508EE3EF2008A
:100E5400FF3003180030F3000A128A1191240A1299
:100E64008A117008F900790883120313A10021087C
:100E74009502472F240895020830F8003330F70014
:100E8400F70B422FF80B422F472F12308312031314
:100E94001506031D4E2F4F2F3C2F512F512F7D3000
:100EA40083160313900083120313A501A50A2608D1
:100EB4008316031312020318602F612FA92F8312C4
:100EC40003132508F700F8017708F0007808F1000B
:100ED400831603131208F900FA01F909FA09F90A49
:100EE4000319FA0A8312031326087907F2007A0811
:100EF40003187A0AF3000A128A1191240A128A1139
:100F04007008FB007B0883120313A2002208F70079
:100F140077088316031392079D2F83122508F70081
:100F24007708831603139207ED30F700992F9A2F51
:100F3400F70B982F9D2F83160313120883120313A4
:100F44002606031DA62FA72F8F2FA92FA92F83169F
:100F5400031312088312031326020318B22FB32FAC
:100F6400F32F2508F700F8017708F0007808F1005E
:100F74002608F900FA01F909FA09F90A0319FA0A23
:100F84008316031312087907F2007A0803187A0A01
:100F9400F3000A128A1191240A128A117008FB00C4
:100FA4007B0883120313A3002308831603139202FE
:100FB400E72F83122508831603139202ED30F700FE
:100FC400E32FE42FF70BE22FE72F83160313120806
:100FD400831203132606031DF02FF12FDB2FF32FAB
:100FE400F32F080083120313A701A801A901AA0182
:0C0FF400AB01AC0183010A128A11E22B50
:02400E00F7FFBA
:00000001FF
